{
  "address": "0xA07ac236fEBc390c798504E927DC8D6a4e1FfcA3",
  "abi": [
    {
      "inputs": [
        {
          "internalType": "address",
          "name": "wbtc_",
          "type": "address"
        }
      ],
      "stateMutability": "nonpayable",
      "type": "constructor"
    },
    {
      "anonymous": false,
      "inputs": [
        {
          "indexed": true,
          "internalType": "address",
          "name": "owner",
          "type": "address"
        },
        {
          "indexed": true,
          "internalType": "address",
          "name": "spender",
          "type": "address"
        },
        {
          "indexed": false,
          "internalType": "uint256",
          "name": "value",
          "type": "uint256"
        }
      ],
      "name": "Approval",
      "type": "event"
    },
    {
      "anonymous": false,
      "inputs": [
        {
          "indexed": false,
          "internalType": "address",
          "name": "to_",
          "type": "address"
        },
        {
          "indexed": false,
          "internalType": "uint256",
          "name": "input_",
          "type": "uint256"
        },
        {
          "indexed": false,
          "internalType": "uint256",
          "name": "output_",
          "type": "uint256"
        }
      ],
      "name": "Burn",
      "type": "event"
    },
    {
      "anonymous": false,
      "inputs": [
        {
          "indexed": false,
          "internalType": "address",
          "name": "to_",
          "type": "address"
        },
        {
          "indexed": false,
          "internalType": "uint256",
          "name": "input_",
          "type": "uint256"
        },
        {
          "indexed": false,
          "internalType": "uint256",
          "name": "output_",
          "type": "uint256"
        }
      ],
      "name": "Mint",
      "type": "event"
    },
    {
      "anonymous": false,
      "inputs": [
        {
          "indexed": true,
          "internalType": "address",
          "name": "previousOwner",
          "type": "address"
        },
        {
          "indexed": true,
          "internalType": "address",
          "name": "newOwner",
          "type": "address"
        }
      ],
      "name": "OwnershipTransferred",
      "type": "event"
    },
    {
      "anonymous": false,
      "inputs": [
        {
          "indexed": true,
          "internalType": "address",
          "name": "from",
          "type": "address"
        },
        {
          "indexed": true,
          "internalType": "address",
          "name": "to",
          "type": "address"
        },
        {
          "indexed": false,
          "internalType": "uint256",
          "name": "value",
          "type": "uint256"
        }
      ],
      "name": "Transfer",
      "type": "event"
    },
    {
      "inputs": [
        {
          "internalType": "address",
          "name": "owner",
          "type": "address"
        },
        {
          "internalType": "address",
          "name": "spender",
          "type": "address"
        }
      ],
      "name": "allowance",
      "outputs": [
        {
          "internalType": "uint256",
          "name": "",
          "type": "uint256"
        }
      ],
      "stateMutability": "view",
      "type": "function"
    },
    {
      "inputs": [
        {
          "internalType": "address",
          "name": "spender",
          "type": "address"
        },
        {
          "internalType": "uint256",
          "name": "amount",
          "type": "uint256"
        }
      ],
      "name": "approve",
      "outputs": [
        {
          "internalType": "bool",
          "name": "",
          "type": "bool"
        }
      ],
      "stateMutability": "nonpayable",
      "type": "function"
    },
    {
      "inputs": [
        {
          "internalType": "address",
          "name": "account",
          "type": "address"
        }
      ],
      "name": "balanceOf",
      "outputs": [
        {
          "internalType": "uint256",
          "name": "",
          "type": "uint256"
        }
      ],
      "stateMutability": "view",
      "type": "function"
    },
    {
      "inputs": [
        {
          "internalType": "address",
          "name": "to",
          "type": "address"
        },
        {
          "internalType": "uint256",
          "name": "amount",
          "type": "uint256"
        }
      ],
      "name": "burn",
      "outputs": [],
      "stateMutability": "nonpayable",
      "type": "function"
    },
    {
      "inputs": [],
      "name": "burnFee",
      "outputs": [
        {
          "internalType": "uint8",
          "name": "",
          "type": "uint8"
        }
      ],
      "stateMutability": "view",
      "type": "function"
    },
    {
      "inputs": [],
      "name": "decimals",
      "outputs": [
        {
          "internalType": "uint8",
          "name": "",
          "type": "uint8"
        }
      ],
      "stateMutability": "view",
      "type": "function"
    },
    {
      "inputs": [
        {
          "internalType": "address",
          "name": "spender",
          "type": "address"
        },
        {
          "internalType": "uint256",
          "name": "subtractedValue",
          "type": "uint256"
        }
      ],
      "name": "decreaseAllowance",
      "outputs": [
        {
          "internalType": "bool",
          "name": "",
          "type": "bool"
        }
      ],
      "stateMutability": "nonpayable",
      "type": "function"
    },
    {
      "inputs": [],
      "name": "feeVault",
      "outputs": [
        {
          "internalType": "address",
          "name": "",
          "type": "address"
        }
      ],
      "stateMutability": "view",
      "type": "function"
    },
    {
      "inputs": [
        {
          "internalType": "address",
          "name": "spender",
          "type": "address"
        },
        {
          "internalType": "uint256",
          "name": "addedValue",
          "type": "uint256"
        }
      ],
      "name": "increaseAllowance",
      "outputs": [
        {
          "internalType": "bool",
          "name": "",
          "type": "bool"
        }
      ],
      "stateMutability": "nonpayable",
      "type": "function"
    },
    {
      "inputs": [],
      "name": "lockedSupply",
      "outputs": [
        {
          "internalType": "uint256",
          "name": "",
          "type": "uint256"
        }
      ],
      "stateMutability": "view",
      "type": "function"
    },
    {
      "inputs": [
        {
          "internalType": "address",
          "name": "to",
          "type": "address"
        },
        {
          "internalType": "uint256",
          "name": "liraAmount",
          "type": "uint256"
        },
        {
          "internalType": "uint256",
          "name": "wbtcAmount",
          "type": "uint256"
        }
      ],
      "name": "mint",
      "outputs": [],
      "stateMutability": "nonpayable",
      "type": "function"
    },
    {
      "inputs": [],
      "name": "name",
      "outputs": [
        {
          "internalType": "string",
          "name": "",
          "type": "string"
        }
      ],
      "stateMutability": "view",
      "type": "function"
    },
    {
      "inputs": [],
      "name": "owner",
      "outputs": [
        {
          "internalType": "address",
          "name": "",
          "type": "address"
        }
      ],
      "stateMutability": "view",
      "type": "function"
    },
    {
      "inputs": [
        {
          "internalType": "uint256",
          "name": "amount",
          "type": "uint256"
        }
      ],
      "name": "quoteBurn",
      "outputs": [
        {
          "internalType": "uint256",
          "name": "",
          "type": "uint256"
        }
      ],
      "stateMutability": "view",
      "type": "function"
    },
    {
      "inputs": [
        {
          "internalType": "uint16",
          "name": "blocks",
          "type": "uint16"
        },
        {
          "internalType": "uint8",
          "name": "valueBoost",
          "type": "uint8"
        }
      ],
      "name": "quoteMint",
      "outputs": [
        {
          "internalType": "uint256",
          "name": "mintAmount_",
          "type": "uint256"
        },
        {
          "internalType": "uint256",
          "name": "lockAmount_",
          "type": "uint256"
        }
      ],
      "stateMutability": "view",
      "type": "function"
    },
    {
      "inputs": [],
      "name": "renounceOwnership",
      "outputs": [],
      "stateMutability": "nonpayable",
      "type": "function"
    },
    {
      "inputs": [
        {
          "internalType": "uint8",
          "name": "burnFee_",
          "type": "uint8"
        }
      ],
      "name": "setBurnFee",
      "outputs": [],
      "stateMutability": "nonpayable",
      "type": "function"
    },
    {
      "inputs": [
        {
          "internalType": "address",
          "name": "feeVault_",
          "type": "address"
        }
      ],
      "name": "setFeeVault",
      "outputs": [],
      "stateMutability": "nonpayable",
      "type": "function"
    },
    {
      "inputs": [],
      "name": "symbol",
      "outputs": [
        {
          "internalType": "string",
          "name": "",
          "type": "string"
        }
      ],
      "stateMutability": "view",
      "type": "function"
    },
    {
      "inputs": [],
      "name": "totalSupply",
      "outputs": [
        {
          "internalType": "uint256",
          "name": "",
          "type": "uint256"
        }
      ],
      "stateMutability": "view",
      "type": "function"
    },
    {
      "inputs": [
        {
          "internalType": "address",
          "name": "to",
          "type": "address"
        },
        {
          "internalType": "uint256",
          "name": "amount",
          "type": "uint256"
        }
      ],
      "name": "transfer",
      "outputs": [
        {
          "internalType": "bool",
          "name": "",
          "type": "bool"
        }
      ],
      "stateMutability": "nonpayable",
      "type": "function"
    },
    {
      "inputs": [
        {
          "internalType": "address",
          "name": "from",
          "type": "address"
        },
        {
          "internalType": "address",
          "name": "to",
          "type": "address"
        },
        {
          "internalType": "uint256",
          "name": "amount",
          "type": "uint256"
        }
      ],
      "name": "transferFrom",
      "outputs": [
        {
          "internalType": "bool",
          "name": "",
          "type": "bool"
        }
      ],
      "stateMutability": "nonpayable",
      "type": "function"
    },
    {
      "inputs": [
        {
          "internalType": "address",
          "name": "newOwner",
          "type": "address"
        }
      ],
      "name": "transferOwnership",
      "outputs": [],
      "stateMutability": "nonpayable",
      "type": "function"
    },
    {
      "inputs": [],
      "name": "wbtc",
      "outputs": [
        {
          "internalType": "contract IERC20",
          "name": "",
          "type": "address"
        }
      ],
      "stateMutability": "view",
      "type": "function"
    }
  ],
  "transactionHash": "0x2d52bffab27e5afbff7ca348155457a22ede59c58a4936561b00b3a024cb512c",
  "args": [
    "0x2f2a2543B76A4166549F7aaB2e75Bef0aefC5B0f"
  ],
  "numDeployments": 2,
  "solcInputHash": "1733dd8cb2e0036bb000751e80f3d81d",
  "bytecode": "0x60e0604052600860ff1660809060ff1681525061271060c0908152506005600760146101000a81548160ff021916908360ff1602179055503480156200004457600080fd5b5060405162003c3838038062003c3883398181016040528101906200006a9190620002df565b6040518060400160405280600c81526020017f5361746f736869204c49524100000000000000000000000000000000000000008152506040518060400160405280600481526020017f4c495241000000000000000000000000000000000000000000000000000000008152508160039081620000e791906200058b565b508060049081620000f991906200058b565b5050506200011c62000110620001a760201b60201c565b620001af60201b60201c565b8073ffffffffffffffffffffffffffffffffffffffff1660a08173ffffffffffffffffffffffffffffffffffffffff168152505062000160620001a760201b60201c565b600760006101000a81548173ffffffffffffffffffffffffffffffffffffffff021916908373ffffffffffffffffffffffffffffffffffffffff1602179055505062000672565b600033905090565b6000600560009054906101000a900473ffffffffffffffffffffffffffffffffffffffff16905081600560006101000a81548173ffffffffffffffffffffffffffffffffffffffff021916908373ffffffffffffffffffffffffffffffffffffffff1602179055508173ffffffffffffffffffffffffffffffffffffffff168173ffffffffffffffffffffffffffffffffffffffff167f8be0079c531659141344cd1fd0a4f28419497f9722a3daafe3b4186f6b6457e060405160405180910390a35050565b600080fd5b600073ffffffffffffffffffffffffffffffffffffffff82169050919050565b6000620002a7826200027a565b9050919050565b620002b9816200029a565b8114620002c557600080fd5b50565b600081519050620002d981620002ae565b92915050565b600060208284031215620002f857620002f762000275565b5b60006200030884828501620002c8565b91505092915050565b600081519050919050565b7f4e487b7100000000000000000000000000000000000000000000000000000000600052604160045260246000fd5b7f4e487b7100000000000000000000000000000000000000000000000000000000600052602260045260246000fd5b600060028204905060018216806200039357607f821691505b602082108103620003a957620003a86200034b565b5b50919050565b60008190508160005260206000209050919050565b60006020601f8301049050919050565b600082821b905092915050565b600060088302620004137fffffffffffffffffffffffffffffffffffffffffffffffffffffffffffffffff82620003d4565b6200041f8683620003d4565b95508019841693508086168417925050509392505050565b6000819050919050565b6000819050919050565b60006200046c62000466620004608462000437565b62000441565b62000437565b9050919050565b6000819050919050565b62000488836200044b565b620004a0620004978262000473565b848454620003e1565b825550505050565b600090565b620004b7620004a8565b620004c48184846200047d565b505050565b5b81811015620004ec57620004e0600082620004ad565b600181019050620004ca565b5050565b601f8211156200053b576200050581620003af565b6200051084620003c4565b8101602085101562000520578190505b620005386200052f85620003c4565b830182620004c9565b50505b505050565b600082821c905092915050565b6000620005606000198460080262000540565b1980831691505092915050565b60006200057b83836200054d565b9150826002028217905092915050565b620005968262000311565b67ffffffffffffffff811115620005b257620005b16200031c565b5b620005be82546200037a565b620005cb828285620004f0565b600060209050601f831160018114620006035760008415620005ee578287015190505b620005fa85826200056d565b8655506200066a565b601f1984166200061386620003af565b60005b828110156200063d5784890151825560018201915060208501945060208101905062000616565b868310156200065d578489015162000659601f8916826200054d565b8355505b6001600288020188555050505b505050505050565b60805160a05160c051613550620006e8600039600081816105f30152818161066001528181610960015281816109d001528181610a2c01528181610add01528181610b0e0152610c690152600081816106c3015281816108a701528181610d510152610dbe0152600061084a01526135506000f3fe608060405234801561001057600080fd5b50600436106101585760003560e01c80638da5cb5b116100c3578063ca5c7b911161007c578063ca5c7b91146103de578063d92940b0146103fc578063dd62ed3e14610418578063decb2c9914610448578063f2fde38b14610478578063fce589d81461049457610158565b80638da5cb5b1461030a57806395d89b41146103285780639dc29fac14610346578063a457c2d714610362578063a591f97f14610392578063a9059cbb146103ae57610158565b8063395093511161011557806339509351146102335780633cdc538914610263578063478222c21461028157806370a082311461029f578063715018a6146102cf57806387310866146102d957610158565b806306fdde031461015d578063095ea7b31461017b578063156e29f6146101ab57806318160ddd146101c757806323b872dd146101e5578063313ce56714610215575b600080fd5b6101656104b2565b6040516101729190611f4f565b60405180910390f35b6101956004803603810190610190919061200a565b610544565b6040516101a29190612065565b60405180910390f35b6101c560048036038101906101c09190612080565b610567565b005b6101cf61080d565b6040516101dc91906120e2565b60405180910390f35b6101ff60048036038101906101fa91906120fd565b610817565b60405161020c9190612065565b60405180910390f35b61021d610846565b60405161022a919061216c565b60405180910390f35b61024d6004803603810190610248919061200a565b61086e565b60405161025a9190612065565b60405180910390f35b61026b6108a5565b60405161027891906121e6565b60405180910390f35b6102896108c9565b6040516102969190612210565b60405180910390f35b6102b960048036038101906102b4919061222b565b6108ef565b6040516102c691906120e2565b60405180910390f35b6102d7610937565b005b6102f360048036038101906102ee91906122be565b61094b565b6040516103019291906122fe565b60405180910390f35b610312610b97565b60405161031f9190612210565b60405180910390f35b610330610bc1565b60405161033d9190611f4f565b60405180910390f35b610360600480360381019061035b919061200a565b610c53565b005b61037c6004803603810190610377919061200a565b610e5f565b6040516103899190612065565b60405180910390f35b6103ac60048036038101906103a7919061222b565b610ed6565b005b6103c860048036038101906103c3919061200a565b610f22565b6040516103d59190612065565b60405180910390f35b6103e6610f45565b6040516103f391906120e2565b60405180910390f35b61041660048036038101906104119190612327565b610f4b565b005b610432600480360381019061042d9190612354565b610fc7565b60405161043f91906120e2565b60405180910390f35b610462600480360381019061045d9190612394565b61104e565b60405161046f91906120e2565b60405180910390f35b610492600480360381019061048d919061222b565b61108e565b005b61049c611111565b6040516104a9919061216c565b60405180910390f35b6060600380546104c1906123f0565b80601f01602080910402602001604051908101604052809291908181526020018280546104ed906123f0565b801561053a5780601f1061050f5761010080835404028352916020019161053a565b820191906000526020600020905b81548152906001019060200180831161051d57829003601f168201915b5050505050905090565b60008061054f611124565b905061055c81858561112c565b600191505092915050565b61056f6112f5565b3073ffffffffffffffffffffffffffffffffffffffff168373ffffffffffffffffffffffffffffffffffffffff16036105dd576040517f08c379a00000000000000000000000000000000000000000000000000000000081526004016105d49061246d565b60405180910390fd5b6105e5610846565b600a6105f191906125ef565b7f000000000000000000000000000000000000000000000000000000000000000061061c919061263a565b82101561065e576040517f08c379a0000000000000000000000000000000000000000000000000000000008152600401610655906126e0565b60405180910390fd5b7f00000000000000000000000000000000000000000000000000000000000000008110156106c1576040517f08c379a00000000000000000000000000000000000000000000000000000000081526004016106b89061274c565b60405180910390fd5b7f000000000000000000000000000000000000000000000000000000000000000073ffffffffffffffffffffffffffffffffffffffff166370a08231306040518263ffffffff1660e01b815260040161071a9190612210565b602060405180830381865afa158015610737573d6000803e3d6000fd5b505050506040513d601f19601f8201168201806040525081019061075b9190612781565b8160065461076991906127ae565b11156107aa576040517f08c379a00000000000000000000000000000000000000000000000000000000081526004016107a19061282e565b60405180910390fd5b80600660008282546107bc91906127ae565b925050819055506107cd8383611373565b7f4c209b5fc8ad50758f13e2e1088ba56a560dff690a1c6fef26394f4c03821c4f8383836040516108009392919061284e565b60405180910390a1505050565b6000600254905090565b600080610822611124565b905061082f8582856114c9565b61083a858585611555565b60019150509392505050565b60007f0000000000000000000000000000000000000000000000000000000000000000905090565b600080610879611124565b905061089a81858561088b8589610fc7565b61089591906127ae565b61112c565b600191505092915050565b7f000000000000000000000000000000000000000000000000000000000000000081565b600760009054906101000a900473ffffffffffffffffffffffffffffffffffffffff1681565b60008060008373ffffffffffffffffffffffffffffffffffffffff1673ffffffffffffffffffffffffffffffffffffffff168152602001908152602001600020549050919050565b61093f6112f5565b61094960006117cb565b565b60008060018461ffff161015801561098757507f00000000000000000000000000000000000000000000000000000000000000008461ffff1611155b6109c6576040517f08c379a00000000000000000000000000000000000000000000000000000000081526004016109bd906128d1565b60405180910390fd5b6109fd8461ffff167f000000000000000000000000000000000000000000000000000000000000000061189190919063ffffffff16565b9050600080610a0a61080d565b9050600060065403610a5c57610a1e610846565b600a610a2a91906125ef565b7f0000000000000000000000000000000000000000000000000000000000000000610a55919061263a565b9150610b8b565b60008560ff16118015610a72575060648560ff16105b610ab1576040517f08c379a0000000000000000000000000000000000000000000000000000000008152600401610aa89061293d565b60405180910390fd5b60005b8661ffff16811015610b8957610b69866064610ad0919061295d565b60ff16610b5b6064610b4d7f00000000000000000000000000000000000000000000000000000000000000008888610b0891906127ae565b610b3b887f000000000000000000000000000000000000000000000000000000000000000061189190919063ffffffff16565b600654610b4891906127ae565b6118a7565b61196190919063ffffffff16565b61189190919063ffffffff16565b83610b7491906127ae565b92508080610b8190612992565b915050610ab4565b505b81935050509250929050565b6000600560009054906101000a900473ffffffffffffffffffffffffffffffffffffffff16905090565b606060048054610bd0906123f0565b80601f0160208091040260200160405190810160405280929190818152602001828054610bfc906123f0565b8015610c495780601f10610c1e57610100808354040283529160200191610c49565b820191906000526020600020905b815481529060010190602001808311610c2c57829003601f168201915b5050505050905090565b610c5b610846565b600a610c6791906125ef565b7f0000000000000000000000000000000000000000000000000000000000000000610c92919061263a565b811015610cd4576040517f08c379a0000000000000000000000000000000000000000000000000000000008152600401610ccb90612a26565b60405180910390fd5b600080610ce083611977565b915091506000610cfa83600654610cf561080d565b6118a7565b9050600080610d0883611977565b91509150610d1d610d17611124565b866119ce565b610d49600760009054906101000a900473ffffffffffffffffffffffffffffffffffffffff1685610f22565b50610d9587837f000000000000000000000000000000000000000000000000000000000000000073ffffffffffffffffffffffffffffffffffffffff16611b9b9092919063ffffffff16565b610e02600760009054906101000a900473ffffffffffffffffffffffffffffffffffffffff16827f000000000000000000000000000000000000000000000000000000000000000073ffffffffffffffffffffffffffffffffffffffff16611b9b9092919063ffffffff16565b8160066000828254610e149190612a46565b925050819055507f49995e5dd6158cf69ad3e9777c46755a1a826a446c6416992167462dad033b2a878784604051610e4e9392919061284e565b60405180910390a150505050505050565b600080610e6a611124565b90506000610e788286610fc7565b905083811015610ebd576040517f08c379a0000000000000000000000000000000000000000000000000000000008152600401610eb490612aec565b60405180910390fd5b610eca828686840361112c565b60019250505092915050565b610ede6112f5565b80600760006101000a81548173ffffffffffffffffffffffffffffffffffffffff021916908373ffffffffffffffffffffffffffffffffffffffff16021790555050565b600080610f2d611124565b9050610f3a818585611555565b600191505092915050565b60065481565b610f536112f5565b60018160ff16118015610f6a575060198160ff1611155b610fa9576040517f08c379a0000000000000000000000000000000000000000000000000000000008152600401610fa090612b58565b60405180910390fd5b80600760146101000a81548160ff021916908360ff16021790555050565b6000600160008473ffffffffffffffffffffffffffffffffffffffff1673ffffffffffffffffffffffffffffffffffffffff16815260200190815260200160002060008373ffffffffffffffffffffffffffffffffffffffff1673ffffffffffffffffffffffffffffffffffffffff16815260200190815260200160002054905092915050565b60008061105a83611977565b50905060006110738260065461106e61080d565b6118a7565b9050600061108082611977565b509050809350505050919050565b6110966112f5565b600073ffffffffffffffffffffffffffffffffffffffff168173ffffffffffffffffffffffffffffffffffffffff1603611105576040517f08c379a00000000000000000000000000000000000000000000000000000000081526004016110fc90612bea565b60405180910390fd5b61110e816117cb565b50565b600760149054906101000a900460ff1681565b600033905090565b600073ffffffffffffffffffffffffffffffffffffffff168373ffffffffffffffffffffffffffffffffffffffff160361119b576040517f08c379a000000000000000000000000000000000000000000000000000000000815260040161119290612c7c565b60405180910390fd5b600073ffffffffffffffffffffffffffffffffffffffff168273ffffffffffffffffffffffffffffffffffffffff160361120a576040517f08c379a000000000000000000000000000000000000000000000000000000000815260040161120190612d0e565b60405180910390fd5b80600160008573ffffffffffffffffffffffffffffffffffffffff1673ffffffffffffffffffffffffffffffffffffffff16815260200190815260200160002060008473ffffffffffffffffffffffffffffffffffffffff1673ffffffffffffffffffffffffffffffffffffffff168152602001908152602001600020819055508173ffffffffffffffffffffffffffffffffffffffff168373ffffffffffffffffffffffffffffffffffffffff167f8c5be1e5ebec7d5bd14f71427d1e84f3dd0314c0f7b2291e5b200ac8c7c3b925836040516112e891906120e2565b60405180910390a3505050565b6112fd611124565b73ffffffffffffffffffffffffffffffffffffffff1661131b610b97565b73ffffffffffffffffffffffffffffffffffffffff1614611371576040517f08c379a000000000000000000000000000000000000000000000000000000000815260040161136890612d7a565b60405180910390fd5b565b600073ffffffffffffffffffffffffffffffffffffffff168273ffffffffffffffffffffffffffffffffffffffff16036113e2576040517f08c379a00000000000000000000000000000000000000000000000000000000081526004016113d990612de6565b60405180910390fd5b6113ee60008383611c21565b806002600082825461140091906127ae565b92505081905550806000808473ffffffffffffffffffffffffffffffffffffffff1673ffffffffffffffffffffffffffffffffffffffff168152602001908152602001600020600082825401925050819055508173ffffffffffffffffffffffffffffffffffffffff16600073ffffffffffffffffffffffffffffffffffffffff167fddf252ad1be2c89b69c2b068fc378daa952ba7f163c4a11628f55a4df523b3ef836040516114b191906120e2565b60405180910390a36114c560008383611c26565b5050565b60006114d58484610fc7565b90507fffffffffffffffffffffffffffffffffffffffffffffffffffffffffffffffff811461154f5781811015611541576040517f08c379a000000000000000000000000000000000000000000000000000000000815260040161153890612e52565b60405180910390fd5b61154e848484840361112c565b5b50505050565b600073ffffffffffffffffffffffffffffffffffffffff168373ffffffffffffffffffffffffffffffffffffffff16036115c4576040517f08c379a00000000000000000000000000000000000000000000000000000000081526004016115bb90612ee4565b60405180910390fd5b600073ffffffffffffffffffffffffffffffffffffffff168273ffffffffffffffffffffffffffffffffffffffff1603611633576040517f08c379a000000000000000000000000000000000000000000000000000000000815260040161162a90612f76565b60405180910390fd5b61163e838383611c21565b60008060008573ffffffffffffffffffffffffffffffffffffffff1673ffffffffffffffffffffffffffffffffffffffff168152602001908152602001600020549050818110156116c4576040517f08c379a00000000000000000000000000000000000000000000000000000000081526004016116bb90613008565b60405180910390fd5b8181036000808673ffffffffffffffffffffffffffffffffffffffff1673ffffffffffffffffffffffffffffffffffffffff16815260200190815260200160002081905550816000808573ffffffffffffffffffffffffffffffffffffffff1673ffffffffffffffffffffffffffffffffffffffff168152602001908152602001600020600082825401925050819055508273ffffffffffffffffffffffffffffffffffffffff168473ffffffffffffffffffffffffffffffffffffffff167fddf252ad1be2c89b69c2b068fc378daa952ba7f163c4a11628f55a4df523b3ef846040516117b291906120e2565b60405180910390a36117c5848484611c26565b50505050565b6000600560009054906101000a900473ffffffffffffffffffffffffffffffffffffffff16905081600560006101000a81548173ffffffffffffffffffffffffffffffffffffffff021916908373ffffffffffffffffffffffffffffffffffffffff1602179055508173ffffffffffffffffffffffffffffffffffffffff168173ffffffffffffffffffffffffffffffffffffffff167f8be0079c531659141344cd1fd0a4f28419497f9722a3daafe3b4186f6b6457e060405160405180910390a35050565b6000818361189f919061263a565b905092915050565b60008084116118eb576040517f08c379a00000000000000000000000000000000000000000000000000000000081526004016118e290613074565b60405180910390fd5b6000831180156118fb5750600082115b61193a576040517f08c379a000000000000000000000000000000000000000000000000000000000815260040161193190613106565b60405180910390fd5b8161194e848661189190919063ffffffff16565b6119589190613155565b90509392505050565b6000818361196f9190613155565b905092915050565b60008060006119b5600760149054906101000a900460ff1660ff166119a76103e88761196190919063ffffffff16565b61189190919063ffffffff16565b905080846119c39190612a46565b819250925050915091565b600073ffffffffffffffffffffffffffffffffffffffff168273ffffffffffffffffffffffffffffffffffffffff1603611a3d576040517f08c379a0000000000000000000000000000000000000000000000000000000008152600401611a34906131f8565b60405180910390fd5b611a4982600083611c21565b60008060008473ffffffffffffffffffffffffffffffffffffffff1673ffffffffffffffffffffffffffffffffffffffff16815260200190815260200160002054905081811015611acf576040517f08c379a0000000000000000000000000000000000000000000000000000000008152600401611ac69061328a565b60405180910390fd5b8181036000808573ffffffffffffffffffffffffffffffffffffffff1673ffffffffffffffffffffffffffffffffffffffff1681526020019081526020016000208190555081600260008282540392505081905550600073ffffffffffffffffffffffffffffffffffffffff168373ffffffffffffffffffffffffffffffffffffffff167fddf252ad1be2c89b69c2b068fc378daa952ba7f163c4a11628f55a4df523b3ef84604051611b8291906120e2565b60405180910390a3611b9683600084611c26565b505050565b611c1c8363a9059cbb60e01b8484604051602401611bba9291906132aa565b604051602081830303815290604052907bffffffffffffffffffffffffffffffffffffffffffffffffffffffff19166020820180517bffffffffffffffffffffffffffffffffffffffffffffffffffffffff8381831617835250505050611c2b565b505050565b505050565b505050565b6000611c8d826040518060400160405280602081526020017f5361666545524332303a206c6f772d6c6576656c2063616c6c206661696c65648152508573ffffffffffffffffffffffffffffffffffffffff16611cf29092919063ffffffff16565b9050600081511115611ced5780806020019051810190611cad91906132ff565b611cec576040517f08c379a0000000000000000000000000000000000000000000000000000000008152600401611ce39061339e565b60405180910390fd5b5b505050565b6060611d018484600085611d0a565b90509392505050565b606082471015611d4f576040517f08c379a0000000000000000000000000000000000000000000000000000000008152600401611d4690613430565b60405180910390fd5b6000808673ffffffffffffffffffffffffffffffffffffffff168587604051611d789190613497565b60006040518083038185875af1925050503d8060008114611db5576040519150601f19603f3d011682016040523d82523d6000602084013e611dba565b606091505b5091509150611dcb87838387611dd7565b92505050949350505050565b60608315611e39576000835103611e3157611df185611e4c565b611e30576040517f08c379a0000000000000000000000000000000000000000000000000000000008152600401611e27906134fa565b60405180910390fd5b5b829050611e44565b611e438383611e6f565b5b949350505050565b6000808273ffffffffffffffffffffffffffffffffffffffff163b119050919050565b600082511115611e825781518083602001fd5b806040517f08c379a0000000000000000000000000000000000000000000000000000000008152600401611eb69190611f4f565b60405180910390fd5b600081519050919050565b600082825260208201905092915050565b60005b83811015611ef9578082015181840152602081019050611ede565b60008484015250505050565b6000601f19601f8301169050919050565b6000611f2182611ebf565b611f2b8185611eca565b9350611f3b818560208601611edb565b611f4481611f05565b840191505092915050565b60006020820190508181036000830152611f698184611f16565b905092915050565b600080fd5b600073ffffffffffffffffffffffffffffffffffffffff82169050919050565b6000611fa182611f76565b9050919050565b611fb181611f96565b8114611fbc57600080fd5b50565b600081359050611fce81611fa8565b92915050565b6000819050919050565b611fe781611fd4565b8114611ff257600080fd5b50565b60008135905061200481611fde565b92915050565b6000806040838503121561202157612020611f71565b5b600061202f85828601611fbf565b925050602061204085828601611ff5565b9150509250929050565b60008115159050919050565b61205f8161204a565b82525050565b600060208201905061207a6000830184612056565b92915050565b60008060006060848603121561209957612098611f71565b5b60006120a786828701611fbf565b93505060206120b886828701611ff5565b92505060406120c986828701611ff5565b9150509250925092565b6120dc81611fd4565b82525050565b60006020820190506120f760008301846120d3565b92915050565b60008060006060848603121561211657612115611f71565b5b600061212486828701611fbf565b935050602061213586828701611fbf565b925050604061214686828701611ff5565b9150509250925092565b600060ff82169050919050565b61216681612150565b82525050565b6000602082019050612181600083018461215d565b92915050565b6000819050919050565b60006121ac6121a76121a284611f76565b612187565b611f76565b9050919050565b60006121be82612191565b9050919050565b60006121d0826121b3565b9050919050565b6121e0816121c5565b82525050565b60006020820190506121fb60008301846121d7565b92915050565b61220a81611f96565b82525050565b60006020820190506122256000830184612201565b92915050565b60006020828403121561224157612240611f71565b5b600061224f84828501611fbf565b91505092915050565b600061ffff82169050919050565b61226f81612258565b811461227a57600080fd5b50565b60008135905061228c81612266565b92915050565b61229b81612150565b81146122a657600080fd5b50565b6000813590506122b881612292565b92915050565b600080604083850312156122d5576122d4611f71565b5b60006122e38582860161227d565b92505060206122f4858286016122a9565b9150509250929050565b600060408201905061231360008301856120d3565b61232060208301846120d3565b9392505050565b60006020828403121561233d5761233c611f71565b5b600061234b848285016122a9565b91505092915050565b6000806040838503121561236b5761236a611f71565b5b600061237985828601611fbf565b925050602061238a85828601611fbf565b9150509250929050565b6000602082840312156123aa576123a9611f71565b5b60006123b884828501611ff5565b91505092915050565b7f4e487b7100000000000000000000000000000000000000000000000000000000600052602260045260246000fd5b6000600282049050600182168061240857607f821691505b60208210810361241b5761241a6123c1565b5b50919050565b7f4c4952415f494e56414c49445f41444452455353000000000000000000000000600082015250565b6000612457601483611eca565b915061246282612421565b602082019050919050565b600060208201905081810360008301526124868161244a565b9050919050565b7f4e487b7100000000000000000000000000000000000000000000000000000000600052601160045260246000fd5b60008160011c9050919050565b6000808291508390505b6001851115612513578086048111156124ef576124ee61248d565b5b60018516156124fe5780820291505b808102905061250c856124bc565b94506124d3565b94509492505050565b60008261252c57600190506125e8565b8161253a57600090506125e8565b8160018114612550576002811461255a57612589565b60019150506125e8565b60ff84111561256c5761256b61248d565b5b8360020a9150848211156125835761258261248d565b5b506125e8565b5060208310610133831016604e8410600b84101617156125be5782820a9050838111156125b9576125b861248d565b5b6125e8565b6125cb84848460016124c9565b925090508184048111156125e2576125e161248d565b5b81810290505b9392505050565b60006125fa82611fd4565b915061260583612150565b92506126327fffffffffffffffffffffffffffffffffffffffffffffffffffffffffffffffff848461251c565b905092915050565b600061264582611fd4565b915061265083611fd4565b9250817fffffffffffffffffffffffffffffffffffffffffffffffffffffffffffffffff04831182151516156126895761268861248d565b5b828202905092915050565b7f4c4952415f494e53554646494349454e545f4c4952415f414d4f554e54000000600082015250565b60006126ca601d83611eca565b91506126d582612694565b602082019050919050565b600060208201905081810360008301526126f9816126bd565b9050919050565b7f4c4952415f494e53554646494349454e545f574254435f414d4f554e54000000600082015250565b6000612736601d83611eca565b915061274182612700565b602082019050919050565b6000602082019050818103600083015261276581612729565b9050919050565b60008151905061277b81611fde565b92915050565b60006020828403121561279757612796611f71565b5b60006127a58482850161276c565b91505092915050565b60006127b982611fd4565b91506127c483611fd4565b92508282019050808211156127dc576127db61248d565b5b92915050565b7f4c4952415f495353554646494349454e545f574254435f42414c414e43450000600082015250565b6000612818601e83611eca565b9150612823826127e2565b602082019050919050565b600060208201905081810360008301526128478161280b565b9050919050565b60006060820190506128636000830186612201565b61287060208301856120d3565b61287d60408301846120d3565b949350505050565b7f4c4952415f494e56414c49445f424c4f434b5f5155414e544954590000000000600082015250565b60006128bb601b83611eca565b91506128c682612885565b602082019050919050565b600060208201905081810360008301526128ea816128ae565b9050919050565b7f4c4952415f494e56414c49445f56414c55455f424f4f53540000000000000000600082015250565b6000612927601883611eca565b9150612932826128f1565b602082019050919050565b600060208201905081810360008301526129568161291a565b9050919050565b600061296882612150565b915061297383612150565b9250828203905060ff81111561298c5761298b61248d565b5b92915050565b600061299d82611fd4565b91507fffffffffffffffffffffffffffffffffffffffffffffffffffffffffffffffff82036129cf576129ce61248d565b5b600182019050919050565b7f4c4952415f494e53554646494349454e545f414d4f554e540000000000000000600082015250565b6000612a10601883611eca565b9150612a1b826129da565b602082019050919050565b60006020820190508181036000830152612a3f81612a03565b9050919050565b6000612a5182611fd4565b9150612a5c83611fd4565b9250828203905081811115612a7457612a7361248d565b5b92915050565b7f45524332303a2064656372656173656420616c6c6f77616e63652062656c6f7760008201527f207a65726f000000000000000000000000000000000000000000000000000000602082015250565b6000612ad6602583611eca565b9150612ae182612a7a565b604082019050919050565b60006020820190508181036000830152612b0581612ac9565b9050919050565b7f4c4952415f494e56414c49445f4255524e5f4645450000000000000000000000600082015250565b6000612b42601583611eca565b9150612b4d82612b0c565b602082019050919050565b60006020820190508181036000830152612b7181612b35565b9050919050565b7f4f776e61626c653a206e6577206f776e657220697320746865207a65726f206160008201527f6464726573730000000000000000000000000000000000000000000000000000602082015250565b6000612bd4602683611eca565b9150612bdf82612b78565b604082019050919050565b60006020820190508181036000830152612c0381612bc7565b9050919050565b7f45524332303a20617070726f76652066726f6d20746865207a65726f2061646460008201527f7265737300000000000000000000000000000000000000000000000000000000602082015250565b6000612c66602483611eca565b9150612c7182612c0a565b604082019050919050565b60006020820190508181036000830152612c9581612c59565b9050919050565b7f45524332303a20617070726f766520746f20746865207a65726f20616464726560008201527f7373000000000000000000000000000000000000000000000000000000000000602082015250565b6000612cf8602283611eca565b9150612d0382612c9c565b604082019050919050565b60006020820190508181036000830152612d2781612ceb565b9050919050565b7f4f776e61626c653a2063616c6c6572206973206e6f7420746865206f776e6572600082015250565b6000612d64602083611eca565b9150612d6f82612d2e565b602082019050919050565b60006020820190508181036000830152612d9381612d57565b9050919050565b7f45524332303a206d696e7420746f20746865207a65726f206164647265737300600082015250565b6000612dd0601f83611eca565b9150612ddb82612d9a565b602082019050919050565b60006020820190508181036000830152612dff81612dc3565b9050919050565b7f45524332303a20696e73756666696369656e7420616c6c6f77616e6365000000600082015250565b6000612e3c601d83611eca565b9150612e4782612e06565b602082019050919050565b60006020820190508181036000830152612e6b81612e2f565b9050919050565b7f45524332303a207472616e736665722066726f6d20746865207a65726f20616460008201527f6472657373000000000000000000000000000000000000000000000000000000602082015250565b6000612ece602583611eca565b9150612ed982612e72565b604082019050919050565b60006020820190508181036000830152612efd81612ec1565b9050919050565b7f45524332303a207472616e7366657220746f20746865207a65726f206164647260008201527f6573730000000000000000000000000000000000000000000000000000000000602082015250565b6000612f60602383611eca565b9150612f6b82612f04565b604082019050919050565b60006020820190508181036000830152612f8f81612f53565b9050919050565b7f45524332303a207472616e7366657220616d6f756e742065786365656473206260008201527f616c616e63650000000000000000000000000000000000000000000000000000602082015250565b6000612ff2602683611eca565b9150612ffd82612f96565b604082019050919050565b6000602082019050818103600083015261302181612fe5565b9050919050565b7f4c4952415f51554f54455f494e53554646494349454e545f414d4f554e540000600082015250565b600061305e601e83611eca565b915061306982613028565b602082019050919050565b6000602082019050818103600083015261308d81613051565b9050919050565b7f4c4952415f51554f54455f494e53554646494349454e545f4c4951554944495460008201527f5900000000000000000000000000000000000000000000000000000000000000602082015250565b60006130f0602183611eca565b91506130fb82613094565b604082019050919050565b6000602082019050818103600083015261311f816130e3565b9050919050565b7f4e487b7100000000000000000000000000000000000000000000000000000000600052601260045260246000fd5b600061316082611fd4565b915061316b83611fd4565b92508261317b5761317a613126565b5b828204905092915050565b7f45524332303a206275726e2066726f6d20746865207a65726f2061646472657360008201527f7300000000000000000000000000000000000000000000000000000000000000602082015250565b60006131e2602183611eca565b91506131ed82613186565b604082019050919050565b60006020820190508181036000830152613211816131d5565b9050919050565b7f45524332303a206275726e20616d6f756e7420657863656564732062616c616e60008201527f6365000000000000000000000000000000000000000000000000000000000000602082015250565b6000613274602283611eca565b915061327f82613218565b604082019050919050565b600060208201905081810360008301526132a381613267565b9050919050565b60006040820190506132bf6000830185612201565b6132cc60208301846120d3565b9392505050565b6132dc8161204a565b81146132e757600080fd5b50565b6000815190506132f9816132d3565b92915050565b60006020828403121561331557613314611f71565b5b6000613323848285016132ea565b91505092915050565b7f5361666545524332303a204552433230206f7065726174696f6e20646964206e60008201527f6f74207375636365656400000000000000000000000000000000000000000000602082015250565b6000613388602a83611eca565b91506133938261332c565b604082019050919050565b600060208201905081810360008301526133b78161337b565b9050919050565b7f416464726573733a20696e73756666696369656e742062616c616e636520666f60008201527f722063616c6c0000000000000000000000000000000000000000000000000000602082015250565b600061341a602683611eca565b9150613425826133be565b604082019050919050565b600060208201905081810360008301526134498161340d565b9050919050565b600081519050919050565b600081905092915050565b600061347182613450565b61347b818561345b565b935061348b818560208601611edb565b80840191505092915050565b60006134a38284613466565b915081905092915050565b7f416464726573733a2063616c6c20746f206e6f6e2d636f6e7472616374000000600082015250565b60006134e4601d83611eca565b91506134ef826134ae565b602082019050919050565b60006020820190508181036000830152613513816134d7565b905091905056fea264697066735822122030cbe8eaed5315c2d216e3f2987b8d2f677797bb3b5b702ed9a28a148e9366f064736f6c63430008100033",
  "devdoc": {
    "author": "Satoshi LIRA Team",
    "custom:security-contact": "contact@satoshilira.io",
    "custom:site": "https://satoshilira.io",
    "custom:whitepaper": "https://whitepaper.satoshilira.io Unleashing the Power of Decentralization Discover the groundbreaking legacy of Satoshi Nakamoto, the visionary who bestowed upon humanity a cutting-edge digital store of value. Now, it's our time to seize this opportunity and embark on a transformative journey towards a truly decentralized economic system, breaking free from the confines of racial and political restrictions. Join us as we revolutionize the future of finance and empower individuals worldwide. Together, we can shape a brighter and more inclusive tomorrow.",
    "kind": "dev",
    "methods": {
      "allowance(address,address)": {
        "details": "See {IERC20-allowance}."
      },
      "approve(address,uint256)": {
        "details": "See {IERC20-approve}. NOTE: If `amount` is the maximum `uint256`, the allowance is not updated on `transferFrom`. This is semantically equivalent to an infinite approval. Requirements: - `spender` cannot be the zero address."
      },
      "balanceOf(address)": {
        "details": "See {IERC20-balanceOf}."
      },
      "decimals()": {
        "details": "Returns the number of decimals used to get its user representation. For example, if `decimals` equals `2`, a balance of `505` tokens should be displayed to a user as `5.05` (`505 / 10 ** 2`). Tokens usually opt for a value of 18, imitating the relationship between Ether and Wei. This is the value {ERC20} uses, unless this function is overridden; NOTE: This information is only used for _display_ purposes: it in no way affects any of the arithmetic of the contract, including {IERC20-balanceOf} and {IERC20-transfer}."
      },
      "decreaseAllowance(address,uint256)": {
        "details": "Atomically decreases the allowance granted to `spender` by the caller. This is an alternative to {approve} that can be used as a mitigation for problems described in {IERC20-approve}. Emits an {Approval} event indicating the updated allowance. Requirements: - `spender` cannot be the zero address. - `spender` must have allowance for the caller of at least `subtractedValue`."
      },
      "increaseAllowance(address,uint256)": {
        "details": "Atomically increases the allowance granted to `spender` by the caller. This is an alternative to {approve} that can be used as a mitigation for problems described in {IERC20-approve}. Emits an {Approval} event indicating the updated allowance. Requirements: - `spender` cannot be the zero address."
      },
      "name()": {
        "details": "Returns the name of the token."
      },
      "owner()": {
        "details": "Returns the address of the current owner."
      },
      "renounceOwnership()": {
        "details": "Leaves the contract without owner. It will not be possible to call `onlyOwner` functions anymore. Can only be called by the current owner. NOTE: Renouncing ownership will leave the contract without an owner, thereby removing any functionality that is only available to the owner."
      },
      "symbol()": {
        "details": "Returns the symbol of the token, usually a shorter version of the name."
      },
      "totalSupply()": {
        "details": "See {IERC20-totalSupply}."
      },
      "transfer(address,uint256)": {
        "details": "See {IERC20-transfer}. Requirements: - `to` cannot be the zero address. - the caller must have a balance of at least `amount`."
      },
      "transferFrom(address,address,uint256)": {
        "details": "See {IERC20-transferFrom}. Emits an {Approval} event indicating the updated allowance. This is not required by the EIP. See the note at the beginning of {ERC20}. NOTE: Does not update the allowance if the current allowance is the maximum `uint256`. Requirements: - `from` and `to` cannot be the zero address. - `from` must have a balance of at least `amount`. - the caller must have allowance for ``from``'s tokens of at least `amount`."
      },
      "transferOwnership(address)": {
        "details": "Transfers ownership of the contract to a new account (`newOwner`). Can only be called by the current owner."
      }
    },
    "title": "Satoshi LIRA Token",
    "version": 1
  },
  "userdoc": {
    "kind": "user",
    "methods": {},
    "version": 1
  },
  "storageLayout": {
    "storage": [
      {
        "astId": 128,
        "contract": "contracts/LIRA.sol:LIRA",
        "label": "_balances",
        "offset": 0,
        "slot": "0",
        "type": "t_mapping(t_address,t_uint256)"
      },
      {
        "astId": 134,
        "contract": "contracts/LIRA.sol:LIRA",
        "label": "_allowances",
        "offset": 0,
        "slot": "1",
        "type": "t_mapping(t_address,t_mapping(t_address,t_uint256))"
      },
      {
        "astId": 136,
        "contract": "contracts/LIRA.sol:LIRA",
        "label": "_totalSupply",
        "offset": 0,
        "slot": "2",
        "type": "t_uint256"
      },
      {
        "astId": 138,
        "contract": "contracts/LIRA.sol:LIRA",
        "label": "_name",
        "offset": 0,
        "slot": "3",
        "type": "t_string_storage"
      },
      {
        "astId": 140,
        "contract": "contracts/LIRA.sol:LIRA",
        "label": "_symbol",
        "offset": 0,
        "slot": "4",
        "type": "t_string_storage"
      },
      {
        "astId": 7,
        "contract": "contracts/LIRA.sol:LIRA",
        "label": "_owner",
        "offset": 0,
        "slot": "5",
        "type": "t_address"
      },
      {
        "astId": 1816,
        "contract": "contracts/LIRA.sol:LIRA",
        "label": "lockedSupply",
        "offset": 0,
        "slot": "6",
        "type": "t_uint256"
      },
      {
        "astId": 1818,
        "contract": "contracts/LIRA.sol:LIRA",
        "label": "feeVault",
        "offset": 0,
        "slot": "7",
        "type": "t_address"
      },
      {
        "astId": 1821,
        "contract": "contracts/LIRA.sol:LIRA",
        "label": "burnFee",
        "offset": 20,
        "slot": "7",
        "type": "t_uint8"
      }
    ],
    "types": {
      "t_address": {
        "encoding": "inplace",
        "label": "address",
        "numberOfBytes": "20"
      },
      "t_mapping(t_address,t_mapping(t_address,t_uint256))": {
        "encoding": "mapping",
        "key": "t_address",
        "label": "mapping(address => mapping(address => uint256))",
        "numberOfBytes": "32",
        "value": "t_mapping(t_address,t_uint256)"
      },
      "t_mapping(t_address,t_uint256)": {
        "encoding": "mapping",
        "key": "t_address",
        "label": "mapping(address => uint256)",
        "numberOfBytes": "32",
        "value": "t_uint256"
      },
      "t_string_storage": {
        "encoding": "bytes",
        "label": "string",
        "numberOfBytes": "32"
      },
      "t_uint256": {
        "encoding": "inplace",
        "label": "uint256",
        "numberOfBytes": "32"
      },
      "t_uint8": {
        "encoding": "inplace",
        "label": "uint8",
        "numberOfBytes": "1"
      }
    }
  }
}