{
  "address": "0x79329eA65A31fdB8239E1314345aFFDDdc62eA7f",
  "abi": [
    {
      "inputs": [
        {
          "internalType": "address",
          "name": "wbtc_",
          "type": "address"
        }
      ],
      "stateMutability": "nonpayable",
      "type": "constructor"
    },
    {
      "anonymous": false,
      "inputs": [
        {
          "indexed": true,
          "internalType": "address",
          "name": "owner",
          "type": "address"
        },
        {
          "indexed": true,
          "internalType": "address",
          "name": "spender",
          "type": "address"
        },
        {
          "indexed": false,
          "internalType": "uint256",
          "name": "value",
          "type": "uint256"
        }
      ],
      "name": "Approval",
      "type": "event"
    },
    {
      "anonymous": false,
      "inputs": [
        {
          "indexed": false,
          "internalType": "address",
          "name": "to_",
          "type": "address"
        },
        {
          "indexed": false,
          "internalType": "uint256",
          "name": "input_",
          "type": "uint256"
        },
        {
          "indexed": false,
          "internalType": "uint256",
          "name": "output_",
          "type": "uint256"
        }
      ],
      "name": "Burn",
      "type": "event"
    },
    {
      "anonymous": false,
      "inputs": [
        {
          "indexed": false,
          "internalType": "address",
          "name": "to_",
          "type": "address"
        },
        {
          "indexed": false,
          "internalType": "uint256",
          "name": "input_",
          "type": "uint256"
        },
        {
          "indexed": false,
          "internalType": "uint256",
          "name": "output_",
          "type": "uint256"
        }
      ],
      "name": "Mint",
      "type": "event"
    },
    {
      "anonymous": false,
      "inputs": [
        {
          "indexed": true,
          "internalType": "address",
          "name": "previousOwner",
          "type": "address"
        },
        {
          "indexed": true,
          "internalType": "address",
          "name": "newOwner",
          "type": "address"
        }
      ],
      "name": "OwnershipTransferred",
      "type": "event"
    },
    {
      "anonymous": false,
      "inputs": [
        {
          "indexed": true,
          "internalType": "address",
          "name": "from",
          "type": "address"
        },
        {
          "indexed": true,
          "internalType": "address",
          "name": "to",
          "type": "address"
        },
        {
          "indexed": false,
          "internalType": "uint256",
          "name": "value",
          "type": "uint256"
        }
      ],
      "name": "Transfer",
      "type": "event"
    },
    {
      "inputs": [
        {
          "internalType": "address",
          "name": "owner",
          "type": "address"
        },
        {
          "internalType": "address",
          "name": "spender",
          "type": "address"
        }
      ],
      "name": "allowance",
      "outputs": [
        {
          "internalType": "uint256",
          "name": "",
          "type": "uint256"
        }
      ],
      "stateMutability": "view",
      "type": "function"
    },
    {
      "inputs": [
        {
          "internalType": "address",
          "name": "spender",
          "type": "address"
        },
        {
          "internalType": "uint256",
          "name": "amount",
          "type": "uint256"
        }
      ],
      "name": "approve",
      "outputs": [
        {
          "internalType": "bool",
          "name": "",
          "type": "bool"
        }
      ],
      "stateMutability": "nonpayable",
      "type": "function"
    },
    {
      "inputs": [
        {
          "internalType": "address",
          "name": "account",
          "type": "address"
        }
      ],
      "name": "balanceOf",
      "outputs": [
        {
          "internalType": "uint256",
          "name": "",
          "type": "uint256"
        }
      ],
      "stateMutability": "view",
      "type": "function"
    },
    {
      "inputs": [
        {
          "internalType": "address",
          "name": "to",
          "type": "address"
        },
        {
          "internalType": "uint256",
          "name": "amount",
          "type": "uint256"
        }
      ],
      "name": "burn",
      "outputs": [],
      "stateMutability": "nonpayable",
      "type": "function"
    },
    {
      "inputs": [],
      "name": "burnFee",
      "outputs": [
        {
          "internalType": "uint8",
          "name": "",
          "type": "uint8"
        }
      ],
      "stateMutability": "view",
      "type": "function"
    },
    {
      "inputs": [],
      "name": "decimals",
      "outputs": [
        {
          "internalType": "uint8",
          "name": "",
          "type": "uint8"
        }
      ],
      "stateMutability": "view",
      "type": "function"
    },
    {
      "inputs": [
        {
          "internalType": "address",
          "name": "spender",
          "type": "address"
        },
        {
          "internalType": "uint256",
          "name": "subtractedValue",
          "type": "uint256"
        }
      ],
      "name": "decreaseAllowance",
      "outputs": [
        {
          "internalType": "bool",
          "name": "",
          "type": "bool"
        }
      ],
      "stateMutability": "nonpayable",
      "type": "function"
    },
    {
      "inputs": [],
      "name": "feeVault",
      "outputs": [
        {
          "internalType": "address",
          "name": "",
          "type": "address"
        }
      ],
      "stateMutability": "view",
      "type": "function"
    },
    {
      "inputs": [
        {
          "internalType": "address",
          "name": "spender",
          "type": "address"
        },
        {
          "internalType": "uint256",
          "name": "addedValue",
          "type": "uint256"
        }
      ],
      "name": "increaseAllowance",
      "outputs": [
        {
          "internalType": "bool",
          "name": "",
          "type": "bool"
        }
      ],
      "stateMutability": "nonpayable",
      "type": "function"
    },
    {
      "inputs": [],
      "name": "lockedSupply",
      "outputs": [
        {
          "internalType": "uint256",
          "name": "",
          "type": "uint256"
        }
      ],
      "stateMutability": "view",
      "type": "function"
    },
    {
      "inputs": [
        {
          "internalType": "address",
          "name": "to",
          "type": "address"
        },
        {
          "internalType": "uint256",
          "name": "liraAmount",
          "type": "uint256"
        },
        {
          "internalType": "uint256",
          "name": "wbtcAmount",
          "type": "uint256"
        }
      ],
      "name": "mint",
      "outputs": [],
      "stateMutability": "nonpayable",
      "type": "function"
    },
    {
      "inputs": [],
      "name": "name",
      "outputs": [
        {
          "internalType": "string",
          "name": "",
          "type": "string"
        }
      ],
      "stateMutability": "view",
      "type": "function"
    },
    {
      "inputs": [],
      "name": "owner",
      "outputs": [
        {
          "internalType": "address",
          "name": "",
          "type": "address"
        }
      ],
      "stateMutability": "view",
      "type": "function"
    },
    {
      "inputs": [
        {
          "internalType": "uint256",
          "name": "amount",
          "type": "uint256"
        }
      ],
      "name": "quoteBurn",
      "outputs": [
        {
          "internalType": "uint256",
          "name": "",
          "type": "uint256"
        }
      ],
      "stateMutability": "view",
      "type": "function"
    },
    {
      "inputs": [
        {
          "internalType": "uint16",
          "name": "blocks",
          "type": "uint16"
        },
        {
          "internalType": "uint8",
          "name": "valueBoost",
          "type": "uint8"
        }
      ],
      "name": "quoteMint",
      "outputs": [
        {
          "internalType": "uint256",
          "name": "mintAmount_",
          "type": "uint256"
        },
        {
          "internalType": "uint256",
          "name": "lockAmount_",
          "type": "uint256"
        }
      ],
      "stateMutability": "view",
      "type": "function"
    },
    {
      "inputs": [],
      "name": "renounceOwnership",
      "outputs": [],
      "stateMutability": "nonpayable",
      "type": "function"
    },
    {
      "inputs": [
        {
          "internalType": "uint8",
          "name": "burnFee_",
          "type": "uint8"
        }
      ],
      "name": "setBurnFee",
      "outputs": [],
      "stateMutability": "nonpayable",
      "type": "function"
    },
    {
      "inputs": [
        {
          "internalType": "address",
          "name": "feeVault_",
          "type": "address"
        }
      ],
      "name": "setFeeVault",
      "outputs": [],
      "stateMutability": "nonpayable",
      "type": "function"
    },
    {
      "inputs": [],
      "name": "symbol",
      "outputs": [
        {
          "internalType": "string",
          "name": "",
          "type": "string"
        }
      ],
      "stateMutability": "view",
      "type": "function"
    },
    {
      "inputs": [],
      "name": "totalSupply",
      "outputs": [
        {
          "internalType": "uint256",
          "name": "",
          "type": "uint256"
        }
      ],
      "stateMutability": "view",
      "type": "function"
    },
    {
      "inputs": [
        {
          "internalType": "address",
          "name": "to",
          "type": "address"
        },
        {
          "internalType": "uint256",
          "name": "amount",
          "type": "uint256"
        }
      ],
      "name": "transfer",
      "outputs": [
        {
          "internalType": "bool",
          "name": "",
          "type": "bool"
        }
      ],
      "stateMutability": "nonpayable",
      "type": "function"
    },
    {
      "inputs": [
        {
          "internalType": "address",
          "name": "from",
          "type": "address"
        },
        {
          "internalType": "address",
          "name": "to",
          "type": "address"
        },
        {
          "internalType": "uint256",
          "name": "amount",
          "type": "uint256"
        }
      ],
      "name": "transferFrom",
      "outputs": [
        {
          "internalType": "bool",
          "name": "",
          "type": "bool"
        }
      ],
      "stateMutability": "nonpayable",
      "type": "function"
    },
    {
      "inputs": [
        {
          "internalType": "address",
          "name": "newOwner",
          "type": "address"
        }
      ],
      "name": "transferOwnership",
      "outputs": [],
      "stateMutability": "nonpayable",
      "type": "function"
    },
    {
      "inputs": [],
      "name": "wbtc",
      "outputs": [
        {
          "internalType": "contract IERC20",
          "name": "",
          "type": "address"
        }
      ],
      "stateMutability": "view",
      "type": "function"
    }
  ],
  "transactionHash": "0x40e785ec19d43d3ba0a2dc374c3b24853a601ea4dbeff13fa9305051af3ebbfd",
  "args": [
    "0x44eea4c6fbFb99a888Aff37AA1E535bE7731BEe0"
  ],
  "numDeployments": 2,
  "solcInputHash": "53ca52bf7579fa11a4a149241862fcab",
  "bytecode": "0x60e0604052600860ff1660809060ff1681525061271060c0908152506005600760146101000a81548160ff021916908360ff1602179055503480156200004457600080fd5b5060405162003d9438038062003d9483398181016040528101906200006a9190620002df565b6040518060400160405280600c81526020017f5361746f736869204c49524100000000000000000000000000000000000000008152506040518060400160405280600481526020017f4c495241000000000000000000000000000000000000000000000000000000008152508160039081620000e791906200058b565b508060049081620000f991906200058b565b5050506200011c62000110620001a760201b60201c565b620001af60201b60201c565b8073ffffffffffffffffffffffffffffffffffffffff1660a08173ffffffffffffffffffffffffffffffffffffffff168152505062000160620001a760201b60201c565b600760006101000a81548173ffffffffffffffffffffffffffffffffffffffff021916908373ffffffffffffffffffffffffffffffffffffffff1602179055505062000672565b600033905090565b6000600560009054906101000a900473ffffffffffffffffffffffffffffffffffffffff16905081600560006101000a81548173ffffffffffffffffffffffffffffffffffffffff021916908373ffffffffffffffffffffffffffffffffffffffff1602179055508173ffffffffffffffffffffffffffffffffffffffff168173ffffffffffffffffffffffffffffffffffffffff167f8be0079c531659141344cd1fd0a4f28419497f9722a3daafe3b4186f6b6457e060405160405180910390a35050565b600080fd5b600073ffffffffffffffffffffffffffffffffffffffff82169050919050565b6000620002a7826200027a565b9050919050565b620002b9816200029a565b8114620002c557600080fd5b50565b600081519050620002d981620002ae565b92915050565b600060208284031215620002f857620002f762000275565b5b60006200030884828501620002c8565b91505092915050565b600081519050919050565b7f4e487b7100000000000000000000000000000000000000000000000000000000600052604160045260246000fd5b7f4e487b7100000000000000000000000000000000000000000000000000000000600052602260045260246000fd5b600060028204905060018216806200039357607f821691505b602082108103620003a957620003a86200034b565b5b50919050565b60008190508160005260206000209050919050565b60006020601f8301049050919050565b600082821b905092915050565b600060088302620004137fffffffffffffffffffffffffffffffffffffffffffffffffffffffffffffffff82620003d4565b6200041f8683620003d4565b95508019841693508086168417925050509392505050565b6000819050919050565b6000819050919050565b60006200046c62000466620004608462000437565b62000441565b62000437565b9050919050565b6000819050919050565b62000488836200044b565b620004a0620004978262000473565b848454620003e1565b825550505050565b600090565b620004b7620004a8565b620004c48184846200047d565b505050565b5b81811015620004ec57620004e0600082620004ad565b600181019050620004ca565b5050565b601f8211156200053b576200050581620003af565b6200051084620003c4565b8101602085101562000520578190505b620005386200052f85620003c4565b830182620004c9565b50505b505050565b600082821c905092915050565b6000620005606000198460080262000540565b1980831691505092915050565b60006200057b83836200054d565b9150826002028217905092915050565b620005968262000311565b67ffffffffffffffff811115620005b257620005b16200031c565b5b620005be82546200037a565b620005cb828285620004f0565b600060209050601f831160018114620006035760008415620005ee578287015190505b620005fa85826200056d565b8655506200066a565b601f1984166200061386620003af565b60005b828110156200063d5784890151825560018201915060208501945060208101905062000616565b868310156200065d578489015162000659601f8916826200054d565b8355505b6001600288020188555050505b505050505050565b60805160a05160c0516136a5620006ef600039600081816105f30152818161066001528181610960015281816109d001528181610b1501528181610bc601528181610bf70152610d520152600081816106c3015281816108a701528181610a0101528181610e3a0152610ea70152600061084a01526136a56000f3fe608060405234801561001057600080fd5b50600436106101585760003560e01c80638da5cb5b116100c3578063ca5c7b911161007c578063ca5c7b91146103de578063d92940b0146103fc578063dd62ed3e14610418578063decb2c9914610448578063f2fde38b14610478578063fce589d81461049457610158565b80638da5cb5b1461030a57806395d89b41146103285780639dc29fac14610346578063a457c2d714610362578063a591f97f14610392578063a9059cbb146103ae57610158565b8063395093511161011557806339509351146102335780633cdc538914610263578063478222c21461028157806370a082311461029f578063715018a6146102cf57806387310866146102d957610158565b806306fdde031461015d578063095ea7b31461017b578063156e29f6146101ab57806318160ddd146101c757806323b872dd146101e5578063313ce56714610215575b600080fd5b6101656104b2565b6040516101729190612038565b60405180910390f35b610195600480360381019061019091906120f3565b610544565b6040516101a2919061214e565b60405180910390f35b6101c560048036038101906101c09190612169565b610567565b005b6101cf61080d565b6040516101dc91906121cb565b60405180910390f35b6101ff60048036038101906101fa91906121e6565b610817565b60405161020c919061214e565b60405180910390f35b61021d610846565b60405161022a9190612255565b60405180910390f35b61024d600480360381019061024891906120f3565b61086e565b60405161025a919061214e565b60405180910390f35b61026b6108a5565b60405161027891906122cf565b60405180910390f35b6102896108c9565b60405161029691906122f9565b60405180910390f35b6102b960048036038101906102b49190612314565b6108ef565b6040516102c691906121cb565b60405180910390f35b6102d7610937565b005b6102f360048036038101906102ee91906123a7565b61094b565b6040516103019291906123e7565b60405180910390f35b610312610c80565b60405161031f91906122f9565b60405180910390f35b610330610caa565b60405161033d9190612038565b60405180910390f35b610360600480360381019061035b91906120f3565b610d3c565b005b61037c600480360381019061037791906120f3565b610f48565b604051610389919061214e565b60405180910390f35b6103ac60048036038101906103a79190612314565b610fbf565b005b6103c860048036038101906103c391906120f3565b61100b565b6040516103d5919061214e565b60405180910390f35b6103e661102e565b6040516103f391906121cb565b60405180910390f35b61041660048036038101906104119190612410565b611034565b005b610432600480360381019061042d919061243d565b6110b0565b60405161043f91906121cb565b60405180910390f35b610462600480360381019061045d919061247d565b611137565b60405161046f91906121cb565b60405180910390f35b610492600480360381019061048d9190612314565b611177565b005b61049c6111fa565b6040516104a99190612255565b60405180910390f35b6060600380546104c1906124d9565b80601f01602080910402602001604051908101604052809291908181526020018280546104ed906124d9565b801561053a5780601f1061050f5761010080835404028352916020019161053a565b820191906000526020600020905b81548152906001019060200180831161051d57829003601f168201915b5050505050905090565b60008061054f61120d565b905061055c818585611215565b600191505092915050565b61056f6113de565b3073ffffffffffffffffffffffffffffffffffffffff168373ffffffffffffffffffffffffffffffffffffffff16036105dd576040517f08c379a00000000000000000000000000000000000000000000000000000000081526004016105d490612556565b60405180910390fd5b6105e5610846565b600a6105f191906126d8565b7f000000000000000000000000000000000000000000000000000000000000000061061c9190612723565b82101561065e576040517f08c379a0000000000000000000000000000000000000000000000000000000008152600401610655906127c9565b60405180910390fd5b7f00000000000000000000000000000000000000000000000000000000000000008110156106c1576040517f08c379a00000000000000000000000000000000000000000000000000000000081526004016106b890612835565b60405180910390fd5b7f000000000000000000000000000000000000000000000000000000000000000073ffffffffffffffffffffffffffffffffffffffff166370a08231306040518263ffffffff1660e01b815260040161071a91906122f9565b602060405180830381865afa158015610737573d6000803e3d6000fd5b505050506040513d601f19601f8201168201806040525081019061075b919061286a565b816006546107699190612897565b11156107aa576040517f08c379a00000000000000000000000000000000000000000000000000000000081526004016107a190612917565b60405180910390fd5b80600660008282546107bc9190612897565b925050819055506107cd838361145c565b7f4c209b5fc8ad50758f13e2e1088ba56a560dff690a1c6fef26394f4c03821c4f83838360405161080093929190612937565b60405180910390a1505050565b6000600254905090565b60008061082261120d565b905061082f8582856115b2565b61083a85858561163e565b60019150509392505050565b60007f0000000000000000000000000000000000000000000000000000000000000000905090565b60008061087961120d565b905061089a81858561088b85896110b0565b6108959190612897565b611215565b600191505092915050565b7f000000000000000000000000000000000000000000000000000000000000000081565b600760009054906101000a900473ffffffffffffffffffffffffffffffffffffffff1681565b60008060008373ffffffffffffffffffffffffffffffffffffffff1673ffffffffffffffffffffffffffffffffffffffff168152602001908152602001600020549050919050565b61093f6113de565b61094960006118b4565b565b60008060018461ffff161015801561098757507f00000000000000000000000000000000000000000000000000000000000000008461ffff1611155b6109c6576040517f08c379a00000000000000000000000000000000000000000000000000000000081526004016109bd906129ba565b60405180910390fd5b6109fd8461ffff167f000000000000000000000000000000000000000000000000000000000000000061197a90919063ffffffff16565b90507f000000000000000000000000000000000000000000000000000000000000000073ffffffffffffffffffffffffffffffffffffffff166370a08231306040518263ffffffff1660e01b8152600401610a5891906122f9565b602060405180830381865afa158015610a75573d6000803e3d6000fd5b505050506040513d601f19601f82011682018060405250810190610a99919061286a565b81600654610aa79190612897565b1115610ae8576040517f08c379a0000000000000000000000000000000000000000000000000000000008152600401610adf90612a26565b60405180910390fd5b600080610af361080d565b9050600060065403610b4557610b07610846565b600a610b1391906126d8565b7f0000000000000000000000000000000000000000000000000000000000000000610b3e9190612723565b9150610c74565b60008560ff16118015610b5b575060648560ff16105b610b9a576040517f08c379a0000000000000000000000000000000000000000000000000000000008152600401610b9190612a92565b60405180910390fd5b60005b8661ffff16811015610c7257610c52866064610bb99190612ab2565b60ff16610c446064610c367f00000000000000000000000000000000000000000000000000000000000000008888610bf19190612897565b610c24887f000000000000000000000000000000000000000000000000000000000000000061197a90919063ffffffff16565b600654610c319190612897565b611990565b611a4a90919063ffffffff16565b61197a90919063ffffffff16565b83610c5d9190612897565b92508080610c6a90612ae7565b915050610b9d565b505b81935050509250929050565b6000600560009054906101000a900473ffffffffffffffffffffffffffffffffffffffff16905090565b606060048054610cb9906124d9565b80601f0160208091040260200160405190810160405280929190818152602001828054610ce5906124d9565b8015610d325780601f10610d0757610100808354040283529160200191610d32565b820191906000526020600020905b815481529060010190602001808311610d1557829003601f168201915b5050505050905090565b610d44610846565b600a610d5091906126d8565b7f0000000000000000000000000000000000000000000000000000000000000000610d7b9190612723565b811015610dbd576040517f08c379a0000000000000000000000000000000000000000000000000000000008152600401610db490612b7b565b60405180910390fd5b600080610dc983611a60565b915091506000610de383600654610dde61080d565b611990565b9050600080610df183611a60565b91509150610e06610e0061120d565b86611ab7565b610e32600760009054906101000a900473ffffffffffffffffffffffffffffffffffffffff168561100b565b50610e7e87837f000000000000000000000000000000000000000000000000000000000000000073ffffffffffffffffffffffffffffffffffffffff16611c849092919063ffffffff16565b610eeb600760009054906101000a900473ffffffffffffffffffffffffffffffffffffffff16827f000000000000000000000000000000000000000000000000000000000000000073ffffffffffffffffffffffffffffffffffffffff16611c849092919063ffffffff16565b8160066000828254610efd9190612b9b565b925050819055507f49995e5dd6158cf69ad3e9777c46755a1a826a446c6416992167462dad033b2a878784604051610f3793929190612937565b60405180910390a150505050505050565b600080610f5361120d565b90506000610f6182866110b0565b905083811015610fa6576040517f08c379a0000000000000000000000000000000000000000000000000000000008152600401610f9d90612c41565b60405180910390fd5b610fb38286868403611215565b60019250505092915050565b610fc76113de565b80600760006101000a81548173ffffffffffffffffffffffffffffffffffffffff021916908373ffffffffffffffffffffffffffffffffffffffff16021790555050565b60008061101661120d565b905061102381858561163e565b600191505092915050565b60065481565b61103c6113de565b60018160ff16118015611053575060198160ff1611155b611092576040517f08c379a000000000000000000000000000000000000000000000000000000000815260040161108990612cad565b60405180910390fd5b80600760146101000a81548160ff021916908360ff16021790555050565b6000600160008473ffffffffffffffffffffffffffffffffffffffff1673ffffffffffffffffffffffffffffffffffffffff16815260200190815260200160002060008373ffffffffffffffffffffffffffffffffffffffff1673ffffffffffffffffffffffffffffffffffffffff16815260200190815260200160002054905092915050565b60008061114383611a60565b509050600061115c8260065461115761080d565b611990565b9050600061116982611a60565b509050809350505050919050565b61117f6113de565b600073ffffffffffffffffffffffffffffffffffffffff168173ffffffffffffffffffffffffffffffffffffffff16036111ee576040517f08c379a00000000000000000000000000000000000000000000000000000000081526004016111e590612d3f565b60405180910390fd5b6111f7816118b4565b50565b600760149054906101000a900460ff1681565b600033905090565b600073ffffffffffffffffffffffffffffffffffffffff168373ffffffffffffffffffffffffffffffffffffffff1603611284576040517f08c379a000000000000000000000000000000000000000000000000000000000815260040161127b90612dd1565b60405180910390fd5b600073ffffffffffffffffffffffffffffffffffffffff168273ffffffffffffffffffffffffffffffffffffffff16036112f3576040517f08c379a00000000000000000000000000000000000000000000000000000000081526004016112ea90612e63565b60405180910390fd5b80600160008573ffffffffffffffffffffffffffffffffffffffff1673ffffffffffffffffffffffffffffffffffffffff16815260200190815260200160002060008473ffffffffffffffffffffffffffffffffffffffff1673ffffffffffffffffffffffffffffffffffffffff168152602001908152602001600020819055508173ffffffffffffffffffffffffffffffffffffffff168373ffffffffffffffffffffffffffffffffffffffff167f8c5be1e5ebec7d5bd14f71427d1e84f3dd0314c0f7b2291e5b200ac8c7c3b925836040516113d191906121cb565b60405180910390a3505050565b6113e661120d565b73ffffffffffffffffffffffffffffffffffffffff16611404610c80565b73ffffffffffffffffffffffffffffffffffffffff161461145a576040517f08c379a000000000000000000000000000000000000000000000000000000000815260040161145190612ecf565b60405180910390fd5b565b600073ffffffffffffffffffffffffffffffffffffffff168273ffffffffffffffffffffffffffffffffffffffff16036114cb576040517f08c379a00000000000000000000000000000000000000000000000000000000081526004016114c290612f3b565b60405180910390fd5b6114d760008383611d0a565b80600260008282546114e99190612897565b92505081905550806000808473ffffffffffffffffffffffffffffffffffffffff1673ffffffffffffffffffffffffffffffffffffffff168152602001908152602001600020600082825401925050819055508173ffffffffffffffffffffffffffffffffffffffff16600073ffffffffffffffffffffffffffffffffffffffff167fddf252ad1be2c89b69c2b068fc378daa952ba7f163c4a11628f55a4df523b3ef8360405161159a91906121cb565b60405180910390a36115ae60008383611d0f565b5050565b60006115be84846110b0565b90507fffffffffffffffffffffffffffffffffffffffffffffffffffffffffffffffff8114611638578181101561162a576040517f08c379a000000000000000000000000000000000000000000000000000000000815260040161162190612fa7565b60405180910390fd5b6116378484848403611215565b5b50505050565b600073ffffffffffffffffffffffffffffffffffffffff168373ffffffffffffffffffffffffffffffffffffffff16036116ad576040517f08c379a00000000000000000000000000000000000000000000000000000000081526004016116a490613039565b60405180910390fd5b600073ffffffffffffffffffffffffffffffffffffffff168273ffffffffffffffffffffffffffffffffffffffff160361171c576040517f08c379a0000000000000000000000000000000000000000000000000000000008152600401611713906130cb565b60405180910390fd5b611727838383611d0a565b60008060008573ffffffffffffffffffffffffffffffffffffffff1673ffffffffffffffffffffffffffffffffffffffff168152602001908152602001600020549050818110156117ad576040517f08c379a00000000000000000000000000000000000000000000000000000000081526004016117a49061315d565b60405180910390fd5b8181036000808673ffffffffffffffffffffffffffffffffffffffff1673ffffffffffffffffffffffffffffffffffffffff16815260200190815260200160002081905550816000808573ffffffffffffffffffffffffffffffffffffffff1673ffffffffffffffffffffffffffffffffffffffff168152602001908152602001600020600082825401925050819055508273ffffffffffffffffffffffffffffffffffffffff168473ffffffffffffffffffffffffffffffffffffffff167fddf252ad1be2c89b69c2b068fc378daa952ba7f163c4a11628f55a4df523b3ef8460405161189b91906121cb565b60405180910390a36118ae848484611d0f565b50505050565b6000600560009054906101000a900473ffffffffffffffffffffffffffffffffffffffff16905081600560006101000a81548173ffffffffffffffffffffffffffffffffffffffff021916908373ffffffffffffffffffffffffffffffffffffffff1602179055508173ffffffffffffffffffffffffffffffffffffffff168173ffffffffffffffffffffffffffffffffffffffff167f8be0079c531659141344cd1fd0a4f28419497f9722a3daafe3b4186f6b6457e060405160405180910390a35050565b600081836119889190612723565b905092915050565b60008084116119d4576040517f08c379a00000000000000000000000000000000000000000000000000000000081526004016119cb906131c9565b60405180910390fd5b6000831180156119e45750600082115b611a23576040517f08c379a0000000000000000000000000000000000000000000000000000000008152600401611a1a9061325b565b60405180910390fd5b81611a37848661197a90919063ffffffff16565b611a4191906132aa565b90509392505050565b60008183611a5891906132aa565b905092915050565b6000806000611a9e600760149054906101000a900460ff1660ff16611a906103e887611a4a90919063ffffffff16565b61197a90919063ffffffff16565b90508084611aac9190612b9b565b819250925050915091565b600073ffffffffffffffffffffffffffffffffffffffff168273ffffffffffffffffffffffffffffffffffffffff1603611b26576040517f08c379a0000000000000000000000000000000000000000000000000000000008152600401611b1d9061334d565b60405180910390fd5b611b3282600083611d0a565b60008060008473ffffffffffffffffffffffffffffffffffffffff1673ffffffffffffffffffffffffffffffffffffffff16815260200190815260200160002054905081811015611bb8576040517f08c379a0000000000000000000000000000000000000000000000000000000008152600401611baf906133df565b60405180910390fd5b8181036000808573ffffffffffffffffffffffffffffffffffffffff1673ffffffffffffffffffffffffffffffffffffffff1681526020019081526020016000208190555081600260008282540392505081905550600073ffffffffffffffffffffffffffffffffffffffff168373ffffffffffffffffffffffffffffffffffffffff167fddf252ad1be2c89b69c2b068fc378daa952ba7f163c4a11628f55a4df523b3ef84604051611c6b91906121cb565b60405180910390a3611c7f83600084611d0f565b505050565b611d058363a9059cbb60e01b8484604051602401611ca39291906133ff565b604051602081830303815290604052907bffffffffffffffffffffffffffffffffffffffffffffffffffffffff19166020820180517bffffffffffffffffffffffffffffffffffffffffffffffffffffffff8381831617835250505050611d14565b505050565b505050565b505050565b6000611d76826040518060400160405280602081526020017f5361666545524332303a206c6f772d6c6576656c2063616c6c206661696c65648152508573ffffffffffffffffffffffffffffffffffffffff16611ddb9092919063ffffffff16565b9050600081511115611dd65780806020019051810190611d969190613454565b611dd5576040517f08c379a0000000000000000000000000000000000000000000000000000000008152600401611dcc906134f3565b60405180910390fd5b5b505050565b6060611dea8484600085611df3565b90509392505050565b606082471015611e38576040517f08c379a0000000000000000000000000000000000000000000000000000000008152600401611e2f90613585565b60405180910390fd5b6000808673ffffffffffffffffffffffffffffffffffffffff168587604051611e6191906135ec565b60006040518083038185875af1925050503d8060008114611e9e576040519150601f19603f3d011682016040523d82523d6000602084013e611ea3565b606091505b5091509150611eb487838387611ec0565b92505050949350505050565b60608315611f22576000835103611f1a57611eda85611f35565b611f19576040517f08c379a0000000000000000000000000000000000000000000000000000000008152600401611f109061364f565b60405180910390fd5b5b829050611f2d565b611f2c8383611f58565b5b949350505050565b6000808273ffffffffffffffffffffffffffffffffffffffff163b119050919050565b600082511115611f6b5781518083602001fd5b806040517f08c379a0000000000000000000000000000000000000000000000000000000008152600401611f9f9190612038565b60405180910390fd5b600081519050919050565b600082825260208201905092915050565b60005b83811015611fe2578082015181840152602081019050611fc7565b60008484015250505050565b6000601f19601f8301169050919050565b600061200a82611fa8565b6120148185611fb3565b9350612024818560208601611fc4565b61202d81611fee565b840191505092915050565b600060208201905081810360008301526120528184611fff565b905092915050565b600080fd5b600073ffffffffffffffffffffffffffffffffffffffff82169050919050565b600061208a8261205f565b9050919050565b61209a8161207f565b81146120a557600080fd5b50565b6000813590506120b781612091565b92915050565b6000819050919050565b6120d0816120bd565b81146120db57600080fd5b50565b6000813590506120ed816120c7565b92915050565b6000806040838503121561210a5761210961205a565b5b6000612118858286016120a8565b9250506020612129858286016120de565b9150509250929050565b60008115159050919050565b61214881612133565b82525050565b6000602082019050612163600083018461213f565b92915050565b6000806000606084860312156121825761218161205a565b5b6000612190868287016120a8565b93505060206121a1868287016120de565b92505060406121b2868287016120de565b9150509250925092565b6121c5816120bd565b82525050565b60006020820190506121e060008301846121bc565b92915050565b6000806000606084860312156121ff576121fe61205a565b5b600061220d868287016120a8565b935050602061221e868287016120a8565b925050604061222f868287016120de565b9150509250925092565b600060ff82169050919050565b61224f81612239565b82525050565b600060208201905061226a6000830184612246565b92915050565b6000819050919050565b600061229561229061228b8461205f565b612270565b61205f565b9050919050565b60006122a78261227a565b9050919050565b60006122b98261229c565b9050919050565b6122c9816122ae565b82525050565b60006020820190506122e460008301846122c0565b92915050565b6122f38161207f565b82525050565b600060208201905061230e60008301846122ea565b92915050565b60006020828403121561232a5761232961205a565b5b6000612338848285016120a8565b91505092915050565b600061ffff82169050919050565b61235881612341565b811461236357600080fd5b50565b6000813590506123758161234f565b92915050565b61238481612239565b811461238f57600080fd5b50565b6000813590506123a18161237b565b92915050565b600080604083850312156123be576123bd61205a565b5b60006123cc85828601612366565b92505060206123dd85828601612392565b9150509250929050565b60006040820190506123fc60008301856121bc565b61240960208301846121bc565b9392505050565b6000602082840312156124265761242561205a565b5b600061243484828501612392565b91505092915050565b600080604083850312156124545761245361205a565b5b6000612462858286016120a8565b9250506020612473858286016120a8565b9150509250929050565b6000602082840312156124935761249261205a565b5b60006124a1848285016120de565b91505092915050565b7f4e487b7100000000000000000000000000000000000000000000000000000000600052602260045260246000fd5b600060028204905060018216806124f157607f821691505b602082108103612504576125036124aa565b5b50919050565b7f4c4952415f494e56414c49445f41444452455353000000000000000000000000600082015250565b6000612540601483611fb3565b915061254b8261250a565b602082019050919050565b6000602082019050818103600083015261256f81612533565b9050919050565b7f4e487b7100000000000000000000000000000000000000000000000000000000600052601160045260246000fd5b60008160011c9050919050565b6000808291508390505b60018511156125fc578086048111156125d8576125d7612576565b5b60018516156125e75780820291505b80810290506125f5856125a5565b94506125bc565b94509492505050565b60008261261557600190506126d1565b8161262357600090506126d1565b8160018114612639576002811461264357612672565b60019150506126d1565b60ff84111561265557612654612576565b5b8360020a91508482111561266c5761266b612576565b5b506126d1565b5060208310610133831016604e8410600b84101617156126a75782820a9050838111156126a2576126a1612576565b5b6126d1565b6126b484848460016125b2565b925090508184048111156126cb576126ca612576565b5b81810290505b9392505050565b60006126e3826120bd565b91506126ee83612239565b925061271b7fffffffffffffffffffffffffffffffffffffffffffffffffffffffffffffffff8484612605565b905092915050565b600061272e826120bd565b9150612739836120bd565b9250817fffffffffffffffffffffffffffffffffffffffffffffffffffffffffffffffff048311821515161561277257612771612576565b5b828202905092915050565b7f4c4952415f494e53554646494349454e545f4c4952415f414d4f554e54000000600082015250565b60006127b3601d83611fb3565b91506127be8261277d565b602082019050919050565b600060208201905081810360008301526127e2816127a6565b9050919050565b7f4c4952415f494e53554646494349454e545f574254435f414d4f554e54000000600082015250565b600061281f601d83611fb3565b915061282a826127e9565b602082019050919050565b6000602082019050818103600083015261284e81612812565b9050919050565b600081519050612864816120c7565b92915050565b6000602082840312156128805761287f61205a565b5b600061288e84828501612855565b91505092915050565b60006128a2826120bd565b91506128ad836120bd565b92508282019050808211156128c5576128c4612576565b5b92915050565b7f4c4952415f495353554646494349454e545f574254435f42414c414e43450000600082015250565b6000612901601e83611fb3565b915061290c826128cb565b602082019050919050565b60006020820190508181036000830152612930816128f4565b9050919050565b600060608201905061294c60008301866122ea565b61295960208301856121bc565b61296660408301846121bc565b949350505050565b7f4c4952415f494e56414c49445f424c4f434b5f5155414e544954590000000000600082015250565b60006129a4601b83611fb3565b91506129af8261296e565b602082019050919050565b600060208201905081810360008301526129d381612997565b9050919050565b7f4c4952415f495353554646494349454e545f42414c414e434500000000000000600082015250565b6000612a10601983611fb3565b9150612a1b826129da565b602082019050919050565b60006020820190508181036000830152612a3f81612a03565b9050919050565b7f4c4952415f494e56414c49445f56414c55455f424f4f53540000000000000000600082015250565b6000612a7c601883611fb3565b9150612a8782612a46565b602082019050919050565b60006020820190508181036000830152612aab81612a6f565b9050919050565b6000612abd82612239565b9150612ac883612239565b9250828203905060ff811115612ae157612ae0612576565b5b92915050565b6000612af2826120bd565b91507fffffffffffffffffffffffffffffffffffffffffffffffffffffffffffffffff8203612b2457612b23612576565b5b600182019050919050565b7f4c4952415f494e53554646494349454e545f414d4f554e540000000000000000600082015250565b6000612b65601883611fb3565b9150612b7082612b2f565b602082019050919050565b60006020820190508181036000830152612b9481612b58565b9050919050565b6000612ba6826120bd565b9150612bb1836120bd565b9250828203905081811115612bc957612bc8612576565b5b92915050565b7f45524332303a2064656372656173656420616c6c6f77616e63652062656c6f7760008201527f207a65726f000000000000000000000000000000000000000000000000000000602082015250565b6000612c2b602583611fb3565b9150612c3682612bcf565b604082019050919050565b60006020820190508181036000830152612c5a81612c1e565b9050919050565b7f4c4952415f494e56414c49445f4255524e5f4645450000000000000000000000600082015250565b6000612c97601583611fb3565b9150612ca282612c61565b602082019050919050565b60006020820190508181036000830152612cc681612c8a565b9050919050565b7f4f776e61626c653a206e6577206f776e657220697320746865207a65726f206160008201527f6464726573730000000000000000000000000000000000000000000000000000602082015250565b6000612d29602683611fb3565b9150612d3482612ccd565b604082019050919050565b60006020820190508181036000830152612d5881612d1c565b9050919050565b7f45524332303a20617070726f76652066726f6d20746865207a65726f2061646460008201527f7265737300000000000000000000000000000000000000000000000000000000602082015250565b6000612dbb602483611fb3565b9150612dc682612d5f565b604082019050919050565b60006020820190508181036000830152612dea81612dae565b9050919050565b7f45524332303a20617070726f766520746f20746865207a65726f20616464726560008201527f7373000000000000000000000000000000000000000000000000000000000000602082015250565b6000612e4d602283611fb3565b9150612e5882612df1565b604082019050919050565b60006020820190508181036000830152612e7c81612e40565b9050919050565b7f4f776e61626c653a2063616c6c6572206973206e6f7420746865206f776e6572600082015250565b6000612eb9602083611fb3565b9150612ec482612e83565b602082019050919050565b60006020820190508181036000830152612ee881612eac565b9050919050565b7f45524332303a206d696e7420746f20746865207a65726f206164647265737300600082015250565b6000612f25601f83611fb3565b9150612f3082612eef565b602082019050919050565b60006020820190508181036000830152612f5481612f18565b9050919050565b7f45524332303a20696e73756666696369656e7420616c6c6f77616e6365000000600082015250565b6000612f91601d83611fb3565b9150612f9c82612f5b565b602082019050919050565b60006020820190508181036000830152612fc081612f84565b9050919050565b7f45524332303a207472616e736665722066726f6d20746865207a65726f20616460008201527f6472657373000000000000000000000000000000000000000000000000000000602082015250565b6000613023602583611fb3565b915061302e82612fc7565b604082019050919050565b6000602082019050818103600083015261305281613016565b9050919050565b7f45524332303a207472616e7366657220746f20746865207a65726f206164647260008201527f6573730000000000000000000000000000000000000000000000000000000000602082015250565b60006130b5602383611fb3565b91506130c082613059565b604082019050919050565b600060208201905081810360008301526130e4816130a8565b9050919050565b7f45524332303a207472616e7366657220616d6f756e742065786365656473206260008201527f616c616e63650000000000000000000000000000000000000000000000000000602082015250565b6000613147602683611fb3565b9150613152826130eb565b604082019050919050565b600060208201905081810360008301526131768161313a565b9050919050565b7f4c4952415f51554f54455f494e53554646494349454e545f414d4f554e540000600082015250565b60006131b3601e83611fb3565b91506131be8261317d565b602082019050919050565b600060208201905081810360008301526131e2816131a6565b9050919050565b7f4c4952415f51554f54455f494e53554646494349454e545f4c4951554944495460008201527f5900000000000000000000000000000000000000000000000000000000000000602082015250565b6000613245602183611fb3565b9150613250826131e9565b604082019050919050565b6000602082019050818103600083015261327481613238565b9050919050565b7f4e487b7100000000000000000000000000000000000000000000000000000000600052601260045260246000fd5b60006132b5826120bd565b91506132c0836120bd565b9250826132d0576132cf61327b565b5b828204905092915050565b7f45524332303a206275726e2066726f6d20746865207a65726f2061646472657360008201527f7300000000000000000000000000000000000000000000000000000000000000602082015250565b6000613337602183611fb3565b9150613342826132db565b604082019050919050565b600060208201905081810360008301526133668161332a565b9050919050565b7f45524332303a206275726e20616d6f756e7420657863656564732062616c616e60008201527f6365000000000000000000000000000000000000000000000000000000000000602082015250565b60006133c9602283611fb3565b91506133d48261336d565b604082019050919050565b600060208201905081810360008301526133f8816133bc565b9050919050565b600060408201905061341460008301856122ea565b61342160208301846121bc565b9392505050565b61343181612133565b811461343c57600080fd5b50565b60008151905061344e81613428565b92915050565b60006020828403121561346a5761346961205a565b5b60006134788482850161343f565b91505092915050565b7f5361666545524332303a204552433230206f7065726174696f6e20646964206e60008201527f6f74207375636365656400000000000000000000000000000000000000000000602082015250565b60006134dd602a83611fb3565b91506134e882613481565b604082019050919050565b6000602082019050818103600083015261350c816134d0565b9050919050565b7f416464726573733a20696e73756666696369656e742062616c616e636520666f60008201527f722063616c6c0000000000000000000000000000000000000000000000000000602082015250565b600061356f602683611fb3565b915061357a82613513565b604082019050919050565b6000602082019050818103600083015261359e81613562565b9050919050565b600081519050919050565b600081905092915050565b60006135c6826135a5565b6135d081856135b0565b93506135e0818560208601611fc4565b80840191505092915050565b60006135f882846135bb565b915081905092915050565b7f416464726573733a2063616c6c20746f206e6f6e2d636f6e7472616374000000600082015250565b6000613639601d83611fb3565b915061364482613603565b602082019050919050565b600060208201905081810360008301526136688161362c565b905091905056fea264697066735822122026de43aff23beb503b74241a18ece3a243f467566157b65735c7f4b3c66d4e9664736f6c63430008100033",
  "devdoc": {
    "author": "Satoshi LIRA Team",
    "custom:security-contact": "contact@satoshilira.io",
    "custom:site": "https://satoshilira.io",
    "custom:whitepaper": "https://whitepaper.satoshilira.io Unleashing the Power of Decentralization Discover the groundbreaking legacy of Satoshi Nakamoto, the visionary who bestowed upon humanity a cutting-edge digital store of value. Now, it's our time to seize this opportunity and embark on a transformative journey towards a truly decentralized economic system, breaking free from the confines of racial and political restrictions. Join us as we revolutionize the future of finance and empower individuals worldwide. Together, we can shape a brighter and more inclusive tomorrow.",
    "kind": "dev",
    "methods": {
      "allowance(address,address)": {
        "details": "See {IERC20-allowance}."
      },
      "approve(address,uint256)": {
        "details": "See {IERC20-approve}. NOTE: If `amount` is the maximum `uint256`, the allowance is not updated on `transferFrom`. This is semantically equivalent to an infinite approval. Requirements: - `spender` cannot be the zero address."
      },
      "balanceOf(address)": {
        "details": "See {IERC20-balanceOf}."
      },
      "decimals()": {
        "details": "Returns the number of decimals used to get its user representation. For example, if `decimals` equals `2`, a balance of `505` tokens should be displayed to a user as `5.05` (`505 / 10 ** 2`). Tokens usually opt for a value of 18, imitating the relationship between Ether and Wei. This is the value {ERC20} uses, unless this function is overridden; NOTE: This information is only used for _display_ purposes: it in no way affects any of the arithmetic of the contract, including {IERC20-balanceOf} and {IERC20-transfer}."
      },
      "decreaseAllowance(address,uint256)": {
        "details": "Atomically decreases the allowance granted to `spender` by the caller. This is an alternative to {approve} that can be used as a mitigation for problems described in {IERC20-approve}. Emits an {Approval} event indicating the updated allowance. Requirements: - `spender` cannot be the zero address. - `spender` must have allowance for the caller of at least `subtractedValue`."
      },
      "increaseAllowance(address,uint256)": {
        "details": "Atomically increases the allowance granted to `spender` by the caller. This is an alternative to {approve} that can be used as a mitigation for problems described in {IERC20-approve}. Emits an {Approval} event indicating the updated allowance. Requirements: - `spender` cannot be the zero address."
      },
      "name()": {
        "details": "Returns the name of the token."
      },
      "owner()": {
        "details": "Returns the address of the current owner."
      },
      "renounceOwnership()": {
        "details": "Leaves the contract without owner. It will not be possible to call `onlyOwner` functions anymore. Can only be called by the current owner. NOTE: Renouncing ownership will leave the contract without an owner, thereby removing any functionality that is only available to the owner."
      },
      "symbol()": {
        "details": "Returns the symbol of the token, usually a shorter version of the name."
      },
      "totalSupply()": {
        "details": "See {IERC20-totalSupply}."
      },
      "transfer(address,uint256)": {
        "details": "See {IERC20-transfer}. Requirements: - `to` cannot be the zero address. - the caller must have a balance of at least `amount`."
      },
      "transferFrom(address,address,uint256)": {
        "details": "See {IERC20-transferFrom}. Emits an {Approval} event indicating the updated allowance. This is not required by the EIP. See the note at the beginning of {ERC20}. NOTE: Does not update the allowance if the current allowance is the maximum `uint256`. Requirements: - `from` and `to` cannot be the zero address. - `from` must have a balance of at least `amount`. - the caller must have allowance for ``from``'s tokens of at least `amount`."
      },
      "transferOwnership(address)": {
        "details": "Transfers ownership of the contract to a new account (`newOwner`). Can only be called by the current owner."
      }
    },
    "title": "Satoshi LIRA Token",
    "version": 1
  },
  "userdoc": {
    "kind": "user",
    "methods": {},
    "version": 1
  },
  "storageLayout": {
    "storage": [
      {
        "astId": 128,
        "contract": "contracts/LIRA.sol:LIRA",
        "label": "_balances",
        "offset": 0,
        "slot": "0",
        "type": "t_mapping(t_address,t_uint256)"
      },
      {
        "astId": 134,
        "contract": "contracts/LIRA.sol:LIRA",
        "label": "_allowances",
        "offset": 0,
        "slot": "1",
        "type": "t_mapping(t_address,t_mapping(t_address,t_uint256))"
      },
      {
        "astId": 136,
        "contract": "contracts/LIRA.sol:LIRA",
        "label": "_totalSupply",
        "offset": 0,
        "slot": "2",
        "type": "t_uint256"
      },
      {
        "astId": 138,
        "contract": "contracts/LIRA.sol:LIRA",
        "label": "_name",
        "offset": 0,
        "slot": "3",
        "type": "t_string_storage"
      },
      {
        "astId": 140,
        "contract": "contracts/LIRA.sol:LIRA",
        "label": "_symbol",
        "offset": 0,
        "slot": "4",
        "type": "t_string_storage"
      },
      {
        "astId": 7,
        "contract": "contracts/LIRA.sol:LIRA",
        "label": "_owner",
        "offset": 0,
        "slot": "5",
        "type": "t_address"
      },
      {
        "astId": 1816,
        "contract": "contracts/LIRA.sol:LIRA",
        "label": "lockedSupply",
        "offset": 0,
        "slot": "6",
        "type": "t_uint256"
      },
      {
        "astId": 1818,
        "contract": "contracts/LIRA.sol:LIRA",
        "label": "feeVault",
        "offset": 0,
        "slot": "7",
        "type": "t_address"
      },
      {
        "astId": 1821,
        "contract": "contracts/LIRA.sol:LIRA",
        "label": "burnFee",
        "offset": 20,
        "slot": "7",
        "type": "t_uint8"
      }
    ],
    "types": {
      "t_address": {
        "encoding": "inplace",
        "label": "address",
        "numberOfBytes": "20"
      },
      "t_mapping(t_address,t_mapping(t_address,t_uint256))": {
        "encoding": "mapping",
        "key": "t_address",
        "label": "mapping(address => mapping(address => uint256))",
        "numberOfBytes": "32",
        "value": "t_mapping(t_address,t_uint256)"
      },
      "t_mapping(t_address,t_uint256)": {
        "encoding": "mapping",
        "key": "t_address",
        "label": "mapping(address => uint256)",
        "numberOfBytes": "32",
        "value": "t_uint256"
      },
      "t_string_storage": {
        "encoding": "bytes",
        "label": "string",
        "numberOfBytes": "32"
      },
      "t_uint256": {
        "encoding": "inplace",
        "label": "uint256",
        "numberOfBytes": "32"
      },
      "t_uint8": {
        "encoding": "inplace",
        "label": "uint8",
        "numberOfBytes": "1"
      }
    }
  }
}